:100000000C942A000C9447000C9447000C94470071
:100010000C9447000C9447000C9447000C94470044
:100020000C9447000C9447000C9447000C94470034
:100030000C9447000C9447000C9447000C94470024
:100040000C9447000C9447000C9447000C94470014
:100050000C94470011241FBECFE5D8E0DEBFCDBF12
:1000600011E0A0E6B0E0E6EAF1E102C005900D92F1
:10007000A437B107D9F721E0A4E7B1E001C01D9290
:10008000A837B207E1F70E942A010C94D1080C941A
:1000900000000E943B0408958F929F92AF92BF92FE
:1000A000CF92DF92EF92FF926B017C0149015A01DE
:1000B0000E945604C701B601680D791D8A1D9B1D5B
:1000C000A50194010E9476086091740170917501F8
:1000D00080917601909177010E946608FF90EF90E1
:1000E000DF90CF90BF90AF909F908F9008950F9327
:1000F0001F93CF93DF938C01EB010E94370460E0E4
:1001000080E00E94180488E890E00E949F0360E06D
:1001100081E00E94180482E990E00E949F0360E061
:1001200082E00E9418048CE990E00E949F0360E046
:1001300083E00E94180486EA90E00E949F036BE02F
:1001400081E00E941804C8010E949F036BE083E0D5
:100150000E941804CE010E949F03DF91CF911F914E
:100160000F910895FF920F931F93CF93DF93CDB715
:10017000DEB728970FB6F894DEBF0FBECDBF6BE099
:1001800082E00E941804FE01319688E0DF011D9292
:100190008A95E9F700E01CC00E946B02182F8823A3
:1001A000B9F00E940E02153441F4E1E0F0E0EC0FEA
:1001B000FD1FE00FF11D10820DC0812F0E94410331
:1001C000E1E0F0E0EC0FFD1FE00FF11D10830F5F89
:1001D000083010F3F12C60E070E0CB0126C0DC01A8
:1001E000CB01880F991FAA1FBB1F8C019D01000F17
:1001F000111F221F331F000F111F221F331FAC01BD
:10020000BD01400F511F621F731F8E2F90E0C097DA
:10021000092E000CAA0BBB0B8C019D01040F151FAE
:10022000261F371FC901B801F394E1E0F0E0EC0F9D
:10023000FD1FEF0DF11DE081E111D1CF28960FB622
:10024000F894DEBF0FBECDBFDF91CF911F910F910C
:10025000FF9008950E9446060E9449000E941E02D7
:100260000E942B0360EB70E084EB90E00E9477002B
:100270000E94B2006B017C0160EB70E08DEB90E0BE
:100280000E9477000E94B2004B015C0166EC70E0B6
:1002900089EC90E00E9477000E94B2002B013C01A3
:1002A00036C00E94370461E081E00E94180483EDAB
:1002B00090E00E949F0363E083E00E94180486EEB2
:1002C00090E00E949F032FEF37EA81E621503040F3
:1002D0008040E1F700C000000E94370462E081E046
:1002E0000E94180485EF90E00E949F0364E083E081
:1002F0000E94180486E091E00E949F039FEF27EA86
:1003000031E6915020403040E1F700C000000E94EB
:100310006B02882331F20E94370460E081E00E9482
:10032000180483E191E00E949F03A5019401C70195
:10033000B6010E944C006B017C010E946B074B01CF
:100340005C01C301B2010E946B079B01AC01C501B6
:10035000B4010E94CA0620E030E048EC52E40E945A
:10036000F9070E943C074B015C018FEF97EA21E6F9
:10037000815090402040E1F700C000000E94370407
:1003800035EFC31631E0D306E104F10420F182E237
:1003900091E00E949F0360E081E00E94180486E3E0
:1003A00091E00E949F03C701B6010E94B20386EC50
:1003B00090E00E949F036CE081E00E9418048BE3B0
:1003C00091E00E949F03C501B4010E94B20385E23F
:1003D0000E94410304C080E491E00E949F0362E018
:1003E00083E00E94180485E591E00E949F038AEA59
:1003F00096EE26E931E08150904020403040D9F718
:10040000000030CF882329F061E086E10E94BF051B
:10041000089560E086E10E94BF05089581E00E9492
:1004200002022FEF81EE94E0215080409040E1F7EE
:1004300000C0000080E00E940202089541E067E0F1
:1004400083E00E94750441E066E083E00E94750449
:1004500041E065E083E00E94750441E063E083E0F1
:100460000E94750440E065E082E00E94750440E06F
:1004700064E082E00E94750440E063E082E00E9454
:10048000750440E062E082E00E94750465E082E06D
:100490000E94E60464E082E00E94E60463E082E0F9
:1004A0000E94E60462E082E00E94E60441E067E028
:1004B00083E00E941A0541E066E083E00E941A058D
:1004C00041E065E083E00E941A0541E063E083E0DB
:1004D0000E941A050895EF92FF920F931F93CF93F6
:1004E000DF931F92CDB7DEB71982F12CE12C07E024
:1004F00048C0043009F444C0033011F4FF24F394DD
:1005000040E0602F83E00E941A0515E032C0AE0182
:100510004F5F5F4F612F82E00E948B0589818111BF
:1005200027C0E5E0F0E09F01211B3109E7E0F0E0A2
:10053000E01BF109CF018F199109F901EE0FFF1F9F
:10054000EE0FFF1FEC59FE4FE80FF91FE08007C0C8
:10055000AE014F5F5F4F612F82E00E948B05898162
:100560008823B1F38FE39CE90197F1F700C0000005
:100570001150123060F641E0602F83E00E941A05AE
:100580000150033008F0B5CF8E2D0F90DF91CF9141
:100590001F910F91FF90EF900895CF93C82F60E0C7
:1005A00083E00E94BF0560E082E00E94BF05C4FBBB
:1005B000662760F988E00E94BF05C5FB662760F9E1
:1005C00089E00E94BF05C6FB662760F98AE00E94A9
:1005D000BF056C2F661F6627661F8CE00E94BF0553
:1005E00061E082E00E94BF058FE99FE00197F1F78B
:1005F00000C0000060E082E00E94BF056C2F6170C7
:1006000088E00E94BF05C1FB662760F989E00E946F
:10061000BF05C2FB662760F98AE00E94BF05C3FBE5
:10062000662760F98CE00E94BF0561E082E00E94CD
:10063000BF058FE99FE00197F1F700C0000060E07F
:1006400082E00E94BF058FE19EE40197F1F700C0B0
:100650000000CF91089583E30E94CD0282E30E94BF
:10066000CD0288E20E94CD028CE00E94CD0281E0A2
:100670000E94CD0286E00E94CD0282E00E94CD025F
:100680000895CF93C82F61E083E00E94BF0560E02A
:1006900082E00E94BF05C4FB662760F988E00E94E3
:1006A000BF05C5FB662760F989E00E94BF05C6FB50
:1006B000662760F98AE00E94BF056C2F661F6627D7
:1006C000661F8CE00E94BF0561E082E00E94BF05CA
:1006D0008FE99FE00197F1F700C0000060E082E041
:1006E0000E94BF056C2F617088E00E94BF05C1FBAE
:1006F000662760F989E00E94BF05C2FB662760F9A2
:100700008AE00E94BF05C3FB662760F98CE00E9467
:10071000BF0561E082E00E94BF058FE99FE001977D
:10072000F1F700C0000060E082E00E94BF058FE1A9
:100730009EE40197F1F700C00000CF9108950F9358
:100740001F93CF938C01C0E003C00E944103CF5F91
:10075000F801EC0FF11D80818111F7CFCF911F912E
:100760000F9108958F929F92AF92BF92CF92DF9296
:10077000EF92FF926B017C0199235CF48DE20E9461
:100780004103F094E094D094C094C11CD11CE11CAE
:10079000F11C61E070E080E090E024C0DC01CB015E
:1007A000880F991FAA1FBB1F4C015D01880C991C63
:1007B000AA1CBB1C880C991CAA1CBB1C880E991E69
:1007C000AA1EBB1EC701B6012AE030E040E050E09F
:1007D0000E949808680D791D8A1D9B1DC22ED32E7C
:1007E000E42EF52E1C141D041E041F04BCF212C0BE
:1007F0002AE030E040E050E00E949808C22ED32E5C
:10080000E42EF52E80E3860F0E9441036C2D7D2D92
:100810008E2D9F2D62307105810591054CF7FF905B
:10082000EF90DF90CF90BF90AF909F908F90089502
:10083000CF93DF9300D000D0CDB7DEB790E8998397
:1008400090EC9A8394E99B8394ED9C83E1E0F0E043
:10085000EC0FFD1FE80FF11D8081860F0E94CD0275
:100860000F900F900F900F90DF91CF91089581E03E
:100870000E94CD02089587B1806487B987B18F77D0
:1008800087B987B1876087B986B1806286B980B73A
:1008900080BF86B1876086B986B1877F86B987B108
:1008A0008F7D87B986B1806886B9089586B18064E6
:1008B00086B9349BFECF24B135B1A8E8B3E10E94DC
:1008C000B708DC01CB01072E7AE0B695A79597957E
:1008D00087957A95D1F7702D809374019093750167
:1008E000A0937601B093770108954423B9F1413084
:1008F00009F06BC0813089F028F08230C9F0833074
:1009000011F108952AB381E090E002C0880F991F89
:100910006A95E2F7822B8ABB089527B381E090E0C5
:1009200002C0880F991F6A95E2F7822B87BB089552
:1009300024B381E090E002C0880F991F6A95E2F726
:10094000822B84BB089521B381E090E002C0880F20
:10095000991F6A95E2F7822B81BB0895813091F04F
:1009600028F08230D9F0833029F108952AB381E04C
:1009700090E002C0880F991F6A95E2F78095822364
:100980008ABB089527B381E090E002C0880F991FC9
:100990006A95E2F78095822387BB089524B381E0AE
:1009A00090E002C0880F991F6A95E2F78095822334
:1009B00084BB089521B381E090E002C0880F991FA5
:1009C0006A95E2F78095822381BB0895813089F092
:1009D00028F08230C9F0833011F108952BB381E003
:1009E00090E002C0880F991F6A95E2F7822B8BBBBB
:1009F000089528B381E090E002C0880F991F6A959E
:100A0000E2F7822B88BB089525B381E090E002C015
:100A1000880F991F6A95E2F7822B85BB089522B350
:100A200081E090E002C0880F991F6A95E2F7822B5F
:100A300082BB08954423B9F1413009F06BC0813085
:100A400089F028F08230C9F0833011F108952BB37A
:100A500081E090E002C0880F991F6A95E2F7822B2F
:100A60008BBB089528B381E090E002C0880F991FE6
:100A70006A95E2F7822B88BB089525B381E090E068
:100A800002C0880F991F6A95E2F7822B85BB0895F3
:100A900022B381E090E002C0880F991F6A95E2F7C7
:100AA000822B82BB0895813091F028F08230D9F0FA
:100AB000833029F108952BB381E090E002C0880FC4
:100AC000991F6A95E2F7809582238BBB089528B31E
:100AD00081E090E002C0880F991F6A95E2F7809547
:100AE000822388BB089525B381E090E002C0880F7F
:100AF000991F6A95E2F78095822385BB089522B3FA
:100B000081E090E002C0880F991F6A95E2F7809516
:100B1000822382BB0895813089F028F08230C9F0A9
:100B2000833011F1089589B390E002C095958795BF
:100B30006A95E2F78170FA018083089586B390E0A8
:100B400002C0959587956A95E2F78170FA018083D6
:100B5000089583B390E002C0959587956A95E2F772
:100B60008170FA018083089580B390E002C095956A
:100B700087956A95E2F78170FA0180830895982F2E
:100B80009695969596958770662309F43FC06130D7
:100B900009F07BC0913099F028F09230E9F0933061
:100BA00041F108954BB321E030E0B90102C0660F76
:100BB000771F8A95E2F7CB01842B8BBB089548B34E
:100BC00021E030E0B90102C0660F771F8A95E2F795
:100BD000CB01842B88BB089545B321E030E0B901F7
:100BE00002C0660F771F8A95E2F7CB01842B85BB85
:100BF000089542B321E030E0B90102C0660F771FCB
:100C00008A95E2F7CB01842B82BB08959130A1F045
:100C100028F09230F9F0933059F108954BB321E068
:100C200030E0B90102C0660F771F8A95E2F7CB0169
:100C3000809584238BBB089548B321E030E0B9014F
:100C400002C0660F771F8A95E2F7CB018095842357
:100C500088BB089545B321E030E0B90102C0660FBA
:100C6000771F8A95E2F7CB018095842385BB089591
:100C700042B321E030E0B90102C0660F771F8A95C8
:100C8000E2F7CB018095842382BB089590E07EC07B
:100C9000E92FF0E0EE0FFF1FE05AFF4F8081282F71
:100CA000269526952695877031813323B9F1313009
:100CB00009F06BC0213089F028F02230C9F02330D0
:100CC00011F163C04AB321E030E002C0220F331FAC
:100CD0008A95E2F7242B2ABB58C047B321E030E0C5
:100CE00002C0220F331F8A95E2F7242B27BB4DC089
:100CF00044B321E030E002C0220F331F8A95E2F7AF
:100D0000242B24BB42C041B321E030E002C0220FBB
:100D1000331F8A95E2F7242B21BB37C0213091F095
:100D200028F02230D9F0233029F12FC04AB321E036
:100D300030E002C0220F331F8A95E2F7209524236A
:100D40002ABB23C047B321E030E002C0220F331F8B
:100D50008A95E2F72095242327BB17C044B321E0EE
:100D600030E002C0220F331F8A95E2F7209524233A
:100D700024BB0BC041B321E030E002C0220F331F7F
:100D80008A95E2F72095242321BB9F5F943108F4D4
:100D90007FCF08950E94DE060C94BF070E94B8071B
:100DA00058F00E94B10740F029F45F3F29F00C94FD
:100DB000A80751110C94F3070C94AE070E94D007BA
:100DC00068F39923B1F3552391F3951B550BBB277A
:100DD000AA2762177307840738F09F5F5F4F220FBF
:100DE000331F441FAA1FA9F335D00E2E3AF0E0E8B6
:100DF00032D091505040E695001CCAF72BD0FE2F00
:100E000029D0660F771F881FBB1F26173707480793
:100E1000AB07B0E809F0BB0B802DBF01FF2793584B
:100E20005F4F3AF09E3F510578F00C94A8070C9460
:100E3000F3075F3FE4F3983ED4F386957795679583
:100E4000B795F7959F5FC9F7880F911D9695879580
:100E500097F90895E1E0660F771F881FBB1F62179F
:100E600073078407BA0720F0621B730B840BBA0B5D
:100E7000EE1F88F7E09508950E94D80788F09F57E5
:100E800098F0B92F9927B751B0F0E1F0660F771FAE
:100E9000881F991F1AF0BA95C9F714C0B13091F0A4
:100EA0000E94F207B1E008950C94F207672F782FA3
:100EB0008827B85F39F0B93FCCF386957795679569
:100EC000B395D9F73EF490958095709561957F4FD5
:100ED0008F4F9F4F0895E89409C097FB3EF490957B
:100EE0008095709561957F4F8F4F9F4F9923A9F003
:100EF000F92F96E9BB279395F69587957795679592
:100F0000B795F111F8CFFAF4BB0F11F460FF1BC0D5
:100F10006F5F7F4F8F4F9F4F16C0882311F096E968
:100F200011C0772321F09EE8872F762F05C0662316
:100F300071F096E8862F70E060E02AF09A95660FCF
:100F4000771F881FDAF7880F9695879597F9089588
:100F500097F99F6780E870E060E008959FEF80EC6C
:100F6000089500240A94161617061806090608950F
:100F700000240A9412161306140605060895092E75
:100F80000394000C11F4882352F0BB0F40F4BF2BE4
:100F900011F460FF04C06F5F7F4F8F4F9F4F089524
:100FA00057FD9058440F551F59F05F3F71F047951A
:100FB000880F97FB991F61F09F3F79F087950895FF
:100FC000121613061406551FF2CF4695F1DF08C01E
:100FD000161617061806991FF1CF8695710561053B
:100FE00008940895E894BB2766277727CB0197F9E3
:100FF00008950E940C080C94BF070E94B10738F0B6
:101000000E94B80720F0952311F00C94A8070C94C7
:10101000AE0711240C94F3070E94D00770F3959F3C
:10102000C1F3950F50E0551F629FF001729FBB27DF
:10103000F00DB11D639FAA27F00DB11DAA1F649F7B
:101040006627B00DA11D661F829F2227B00DA11D2E
:10105000621F739FB00DA11D621F839FA00D611DB4
:10106000221F749F3327A00D611D231F849F600DD5
:10107000211D822F762F6A2F11249F5750409AF0FE
:10108000F1F088234AF0EE0FFF1FBB1F661F771F8A
:10109000881F91505040A9F79E3F510580F00C9455
:1010A000A8070C94F3075F3FE4F3983ED4F38695CA
:1010B00077956795B795F795E7959F5FC1F7FE2BF5
:1010C000880F911D9695879597F90895DB018F9369
:1010D0009F930E94C608BF91AF91A29F800D911D62
:1010E000A39F900DB29F900D11240895A1E21A2E96
:1010F000AA1BBB1BFD010DC0AA1FBB1FEE1FFF1FBC
:10110000A217B307E407F50720F0A21BB30BE40B0B
:10111000F50B661F771F881F991F1A9469F7609552
:101120007095809590959B01AC01BD01CF0108950C
:10113000052E97FB1EF400940E94AF0857FD07D0C0
:101140000E94760807FC03D04EF40C94AF0850952B
:101150004095309521953F4F4F4F5F4F08959095A3
:101160008095709561957F4F8F4F9F4F0895A29FF7
:10117000B001B39FC001A39F700D811D1124911D6B
:10118000B29F700D811D1124911D08950E94B70812
:10119000A59F900DB49F900DA49F800D911D1124CB
:0611A0000895F894FFCF52
:1011A6000F010401050106010301020108010901FD
:1011B6000A010C01160100000000000000000000FA
:1011C60000000000000000002D2D522D2D2D522D67
:1011D6002D007C203120202032207C007C20202005
:1011E600202020207C002D2D2D2D7C6C2D2D2D00DA
:1011F6006F686D00456E74657220523100456E74DD
:101206006572205232006D7600456E74657220421A
:10121600207600506C6561736520436F6E6E656362
:1012260074207468650063697263756974206F6EF3
:101236002050413700496620796F7520617265201C
:10124600726561647900486F6C6420616E79204B29
:1012560065790043616C63756C6174696E672E2EE7
:101266002E0063616C63756C6174696F6E207375B3
:101276006363657373004361703A0048656C3A00B6
:1012860063616C63756C6174696F6E204661696C2D
:1012960065643A28005265737461727420696E2021
:1012A60031307300373839413435364231323343C1
:0412B6006330454418
:00000001FF
