:100000000C942A000C9447000C9447000C94470071
:100010000C9447000C9447000C9447000C94470044
:100020000C9447000C9447000C9447000C94470034
:100030000C9447000C9447000C9447000C94470024
:100040000C9447000C9447000C9447000C94470014
:100050000C94470011241FBECFE5D8E0DEBFCDBF12
:1000600011E0A0E6B0E0EAE7FDE002C005900D92E5
:10007000AC37B107D9F721E0ACE7B1E001C01D9280
:10008000A038B207E1F70E9416010C94BB060C944D
:1000900000000C9417048F929F92AF92BF92CF9260
:1000A000DF92EF92FF926B017C0149015A010E949D
:1000B0002604C701B601680D791D8A1D9B1DA50187
:1000C00094010E94600660917C0170917D01809195
:1000D0007E0190917F010E945006FF90EF90DF908B
:1000E000CF90BF90AF909F908F9008950F931F93E4
:1000F000CF93DF938C01EB010E94140460E080E059
:100100000E94F1038CE890E00E947C0360E081E0B3
:100110000E94F10386E990E00E947C0360E082E0A7
:100120000E94F10380EA90E00E947C0360E083E09B
:100130000E94F1038AEA90E00E947C036BE081E078
:100140000E94F103C8010E947C036BE083E00E94DF
:10015000F103CE01DF91CF911F910F910C947C039D
:10016000CF92DF92EF92FF920F931F93CF93DF9383
:10017000CDB7DEB728970FB6F894DEBF0FBECDBF60
:100180006BE082E00E94F1038E010F5F1F4F88E059
:10019000F80111928A95E9F76801F12CF8E0FF1651
:1001A000B9F00E944502E82E8823C1F30E94EB01BA
:1001B000F5E4EF1205C0F801EF0DF11D108208C043
:1001C0008E2D0E941E03F601E1926F01F394E6CF9B
:1001D000F0E060E070E0CB01D801AF0FB11DEC9111
:1001E000EE23A9F0AAE0B0E09B01AC010E94B006AA
:1001F0004E2F50E09A01205331096901330FEE0868
:10020000FF086C0D7D1D8E1D9F1DFF5FE5CF28969D
:100210000FB6F894DEBF0FBECDBFDF91CF911F9117
:100220000F91FF90EF90DF90CF9008950E94D60538
:100230000E9449000E94F9010E940903C4E664EB90
:1002400070E088EB90E00E9476000E94B0006B01A5
:100250007C0164EB70E081EC90E00E9476000E94EB
:10026000B0002B013C016AEC70E08DEC90E00E9444
:1002700076000E94B0004B015C010E944502811192
:1002800037C00E94140461E081E00E94F10387ED11
:1002900090E00E947C0363E083E00E94F1038AEE19
:1002A00090E00E947C032FEF37EA81E62150304036
:1002B0008040E1F700C000000E94140462E081E089
:1002C0000E94F10389EF90E00E947C0364E083E0E8
:1002D0000E94F1038AE091E00E947C039FEF27EAED
:1002E00031E6915020403040E1F700C00000C5CF1A
:1002F0000E94140460E081E00E94F10387E191E034
:100300000E947C03A3019201C701B6010E944B0029
:100310006B017C018FEF97EA21E6815090402040ED
:10032000E1F700C000000E941404C114D104E104EC
:10033000F10479F186E291E00E947C0360E081E0C3
:100340000E94F1038DE391E00E947C03C701B60196
:100350000E948F038AEC90E00E947C036CE081E0B5
:100360000E94F10382E491E00E947C03C701B60180
:10037000A50194010E946006C29FB001C39F700D49
:10038000112480E090E00E948F0385E20E941E030A
:1003900004C087E491E00E947C0362E083E00E9455
:1003A000F1038DE591E00E947C033AEA86EE96E93E
:1003B00021E03150804090402040D9F700003FCFED
:1003C00061E086E10C94540581110C94E00160E039
:1003D00086E10C9454050E94E0012FEF81EE94E039
:1003E000215080409040E1F700C0000080E00C9474
:1003F000E40141E067E083E00E94410441E066E0FF
:1004000083E00E94410441E065E083E00E944104F2
:1004100041E063E083E00E94410440E065E082E067
:100420000E94410440E064E082E00E94410440E018
:1004300063E082E00E94410440E062E082E00E94CA
:10044000410465E082E00E94A60464E082E00E942C
:10045000A60463E082E00E94A60462E082E00E94BB
:10046000A60441E067E083E00E94D60441E066E034
:1004700083E00E94D60441E065E083E00E94D60458
:1004800041E063E083E00C94D604AF92BF92CF9238
:10049000DF92EF92FF920F931F93CF93DF931F9200
:1004A000CDB7DEB71982C12CD12CA12CB12C17E00D
:1004B0001430E9F1133011F4AA24A39440E0612F21
:1004C00083E00E94D604760127E0E21AF108C70112
:1004D0008A199109FC01E459FE4F7F0105E0AE0144
:1004E0004F5F5F4F602F82E00E943B058981811141
:1004F00013C0F701B7808981811108C0AE014F5F39
:100500005F4F602F82E00E943B05F5CF8FE39CE9AF
:100510000197F1F700C00000015094E0E90EF11CD2
:100520000130E9F641E0612F83E00E94D6041150CA
:10053000EFEFCE1ADE0A123009F0BACF8B2D0F90F2
:10054000DF91CF911F910F91FF90EF90DF90CF90AF
:10055000BF90AF900895CF93C82F60E083E00E94D2
:10056000540560E082E00E945405C4FB662760F9F0
:1005700088E00E945405C5FB662760F989E00E9467
:100580005405C6FB662760F98AE00E9454056C2F6B
:10059000661F6627661F8CE00E94540561E082E0BA
:1005A0000E9454058FE99FE00197F1F700C0000019
:1005B00060E082E00E9454056C2F617088E00E9428
:1005C0005405C1FB662760F989E00E945405C2FB0F
:1005D000662760F98AE00E945405C3FB662760F92C
:1005E0008CE00E94540561E082E00E9454058FE98E
:1005F0009FE00197F1F700C0000060E082E00E94F8
:1006000054058FE19EE40197F1F700C00000CF91FF
:10061000089583E30E94AB0282E30E94AB0288E26A
:100620000E94AB028CE00E94AB0281E00E94AB0210
:1006300086E00E94AB0282E00C94AB02CF93C82FFD
:1006400061E083E00E94540560E082E00E9454056E
:10065000C4FB662760F988E00E945405C5FB662745
:1006600060F989E00E945405C6FB662760F98AE0BC
:100670000E9454056C2F661F6627661F8CE00E943F
:10068000540561E082E00E9454058FE99FE00197E4
:10069000F1F700C0000060E082E00E9454056C2F7A
:1006A000617088E00E945405C1FB662760F989E00B
:1006B0000E945405C2FB662760F98AE00E94540537
:1006C000C3FB662760F98CE00E94540561E082E07C
:1006D0000E9454058FE99FE00197F1F700C00000E8
:1006E00060E082E00E9454058FE19EE40197F1F7FB
:1006F00000C00000CF9108950F931F93CF938C01FA
:10070000C0E0F801EC0FF11D8081882321F00E94E8
:100710001E03CF5FF6CFCF911F910F9108954F9297
:100720005F926F927F928F929F92AF92BF92CF9281
:10073000DF92EF92FF924B015C0197FF0BC08DE2BD
:100740000E941E03B094A09490948094811C911CEC
:10075000A11CB11C61E070E080E090E03AE0432E23
:10076000512C612C712C81149104A104B104A9F0C5
:10077000AAE0B0E09B01AC010E94B0066B017C01D5
:10078000C501B401A30192010E9482066C0D7D1D7A
:100790008E1D9F1D49015A01E6CF2AE0C22ED12CA1
:1007A000E12CF12C62307105810591056CF0A701F7
:1007B00096010E94820649015A0180E3860F0E9439
:1007C0001E03B401C501EECFFF90EF90DF90CF90F4
:1007D000BF90AF909F908F907F906F905F904F9061
:1007E00008950F931F93CF93DF9300D000D0CDB720
:1007F000DEB7009188001091890020918A00309125
:100800008B0009831A832B833C83FE01E80FF11DC3
:100810008181860F0F900F900F900F90DF91CF91F5
:100820001F910F910C94AB0281E00C94AB023E9AA5
:100830003F9887B1876087B9359A80B780BF86B106
:10084000876086B933983D98379A0895369A349BD5
:10085000FECF24B135B1A8E8B3E10E94A106DC01C6
:10086000CB012AE0B695A795979587952A95D1F75C
:1008700080937C0190937D01A0937E01B0937F01D2
:100880000895442379F1413009F05FC0813079F057
:1008900028F08230A9F08330E1F008952AB381E096
:1008A00090E001C0880F6A95EAF7822B2CC027B32D
:1008B00081E090E001C0880F6A95EAF7822B2EC094
:1008C00024B381E090E001C0880F6A95EAF7822B9B
:1008D00030C021B381E090E001C0880F6A95EAF74B
:1008E000822B32C0813089F028F08230C9F0833009
:1008F00011F108952AB381E090E001C0880F6A9554
:10090000EAF7809582238ABB089527B381E090E0BF
:1009100001C0880F6A95EAF78095822387BB089506
:1009200024B381E090E001C0880F6A95EAF78095D2
:10093000822384BB089521B381E090E001C0880F39
:100940006A95EAF78095822381BB0895813081F012
:1009500028F08230B9F08330F9F008952BB381E0AC
:1009600090E001C0880F6A95EAF7822B8BBB08954F
:1009700028B381E090E001C0880F6A95EAF7822BE6
:1009800088BB089525B381E090E001C0880F6A9587
:10099000EAF7822B85BB089522B381E090E001C085
:1009A000880F6A95EAF7822B82BB0895442379F178
:1009B000413009F05FC0813079F028F08230A9F031
:1009C0008330E1F008952BB381E090E001C0880FFF
:1009D0006A95EAF7822B2CC028B381E090E001C031
:1009E000880F6A95EAF7822B2EC025B381E090E04C
:1009F00001C0880F6A95EAF7822B30C022B381E0EC
:100A000090E001C0880F6A95EAF7822B32C08130EE
:100A100089F028F08230C9F0833011F108952BB3AA
:100A200081E090E001C0880F6A95EAF78095822303
:100A30008BBB089528B381E090E001C0880F6A95D0
:100A4000EAF78095822388BB089525B381E090E082
:100A500001C0880F6A95EAF78095822385BB0895C7
:100A600022B381E090E001C0880F6A95EAF7809593
:100A7000822382BB0895FA01813041F028F0823050
:100A800039F0833039F0089589B305C086B303C0C7
:100A900083B301C080B390E002C0959587956A95B5
:100AA000E2F7817080830895982F96959695969594
:100AB00087706623D9F1613009F077C0913091F0E9
:100AC00028F09230D9F0933029F108954BB321E00A
:100AD00030E0B90102C0660F771F8A95E2F7CB01BB
:100AE000842B38C048B321E030E0B90102C0660F62
:100AF000771F8A95E2F7CB01842B3AC045B321E0FA
:100B000030E0B90102C0660F771F8A95E2F7CB018A
:100B1000842B3CC042B321E030E0B90102C0660F33
:100B2000771F8A95E2F7CB01842B3EC09130A1F06C
:100B300028F09230F9F0933059F108954BB321E049
:100B400030E0B90102C0660F771F8A95E2F7CB014A
:100B5000809584238BBB089548B321E030E0B90130
:100B600002C0660F771F8A95E2F7CB018095842338
:100B700088BB089545B321E030E0B90102C0660F9B
:100B8000771F8A95E2F7CB018095842385BB089572
:100B900042B321E030E0B90102C0660F771F8A95A9
:100BA000E2F7CB018095842382BB0895E0E6F0E074
:100BB00021E030E08081982F9695969596958770E4
:100BC0004181442399F1413009F063C09130D1F063
:100BD00078F0923009F1933009F05BC041B3B9016C
:100BE00002C0660F771F8A95E2F7CB01842B50C0B5
:100BF0004AB3B90102C0660F771F8A95E2F7CB01AD
:100C0000842B2EC047B3B90102C0660F771F8A95A7
:100C1000E2F7CB01842B2FC044B3B90102C0660FA9
:100C2000771F8A95E2F7CB01842B30C09130D1F049
:100C300070F0923011F1933061F591B3A90101C0C8
:100C4000440F8A95EAF7842F8095892321C09AB3AF
:100C5000A90101C0440F8A95EAF7842F8095892362
:100C60008ABB17C097B3A90101C0440F8A95EAF760
:100C7000842F8095892387BB0CC094B3A90101C040
:100C8000440F8A95EAF7842F8095892384BB01C09D
:100C900081BB329670E0E838F70709F08BCF0895F2
:100CA000DB018F939F930E94B006BF91AF91A29FEB
:100CB000800D911DA39F900DB29F900D112408955A
:100CC000A1E21A2EAA1BBB1BFD010DC0AA1FBB1F50
:100CD000EE1FFF1FA217B307E407F50720F0A21BC2
:100CE000B30BE40BF50B661F771F881F991F1A942F
:100CF00069F760957095809590959B01AC01BD0159
:100D0000CF010895052E97FB1EF400940E949906CA
:100D100057FD07D00E94600607FC03D04EF40C94E8
:100D2000990650954095309521953F4F4F4F5F4F15
:100D3000089590958095709561957F4F8F4F9F4F47
:100D40000895A29FB001B39FC001A39F700D811DA4
:100D50001124911DB29F700D811D1124911D0895C4
:100D60000E94A106A59F900DB49F900DA49F800D99
:0A0D7000911D11240895F894FFCF9F
:100D7A000F0104010501060103010201080109012D
:100D8A000A010C011601000000000000000000002A
:100D9A00000000000000000080C094D42D2D522DC8
:100DAA002D2D522D2D007C203120202032207C0038
:100DBA007C202020202020207C002D2D2D2D7C6CB5
:100DCA002D2D2D006F686D00456E746572205231AD
:100DDA0000456E746572205232006D7600456E745D
:100DEA0065722042207600506C6561736520436FFE
:100DFA006E6E6563742074686500636972637569F1
:100E0A0074206F6E2050413100496620796F752039
:100E1A0061726520726561647900486F6C64206153
:100E2A006E79204B65790043616C63756C617469F6
:100E3A006E672E2E2E0063616C63756C6174696F28
:100E4A006E207375636365737366756C00436170B6
:100E5A003A0048656C3A0063616C63756C61746949
:100E6A006F6E204661696C6564203A28005265738A
:100E7A007461727420696E203130730037383941D9
:0C0E8A0034353642313233436330454486
:00000001FF
